:020000040800F2
:1000000098400020D50200083D72000841290008F0
:1000100019720008DD1E000839B300080000000056
:10002000000000000000000000000000099200082D
:100030002522000800000000650300089D950008C7
:10004000EF020008EF020008EF020008EF020008CC
:10005000EF020008EF020008EF020008EF020008BC
:10006000EF020008EF02000809250008EF0200086F
:10007000EF020008EF020008EF020008EF0200089C
:10008000EF020008EF020008EF020008EF0200088C
:10009000EF020008EF020008EF0200083D2500080B
:1000A000EF020008EF020008EF020008EF0200086C
:1000B000EF020008EF020008EF020008EF0200085C
:1000C000EF020008EF020008EF020008EF0200084C
:1000D000EF02000885AF0008EF02000819B0000821
:1000E000EF020008EF020008EF020008EF0200082C
:1000F000EF020008EF020008EF020008EF0200081C
:10010000EF020008EF020008EF020008EF0200080B
:10011000EF020008EF020008EF020008EF020008FB
:10012000EF020008EF020008EF020008EF020008EB
:10013000EF020008EF020008EF020008EF020008DB
:10014000EF020008EF020008EF020008EF020008CB
:10015000EF020008EF020008EF020008EF020008BB
:10016000EF020008EF020008EF020008EF020008AB
:10017000EF020008EF020008EF020008EF0200089B
:10018000EF020008EF02000800F002F800F092F819
:100190000AA090E8000C82448344AAF10107DA45E2
:1001A00001D100F087F8AFF2090EBAE80F0013F0A2
:1001B000010F18BFFB1A43F00103184700DA0000D3
:1001C00020DA0000103A24BF78C878C1FAD8520764
:1001D00024BF30C830C144BF04680C6070470000C1
:1001E0000023002400250026103A28BF78C1FBD840
:1001F000520728BF30C148BF0B6070476E2900F01E
:100200000384702900F0C58166290BF0B387652946
:100210000BF0B08767290BF0AD8761290BF0AC8735
:1002200003681B0A28BF41F08001692900F036816C
:10023000642900F03381752900F030816F2900F0C6
:10024000FA84782900F09181E92900F09584E42965
:1002500000F09284F52900F08F84EF2900F0F784F4
:10026000F82900F090810368DB0928BF41F0800184
:10027000632900F00484732900F00984E32901F064
:100280000381F32901F00881002070471FB50BF0AE
:100290006CFF01F05BF90400002000210BF056FC1C
:1002A000401C6060002000210BF03AFCE0601FBDA4
:1002B00010B510BD01F01CF91146FFF7E7FF0BF078
:1002C000E7FB01F0F9F903B4FFF7F2FF03BC0BF011
:1002D00042FB00000948804709480047FEE7FEE767
:1002E000FEE7FEE7FEE7FEE7FEE7FEE7FEE7FEE7E6
:1002F00004480549054A064B70470000B9950008B7
:1003000089010008983A002098400020983C00207D
:10031000983C0020EFF3108072B6704780F310888D
:100320007047264C4FF6FF7525604FF0000484F3AC
:100330000988234C4FF001052570224C4FF0805561
:10034000256062B6FEE730B41E4C4FF08055256044
:1003500030BC704730B41B4C4FF08055256030BC2A
:10036000704700BF72B6EFF3098050B11EF0100F56
:1003700008BF20ED108A203880E8F00F1249096884
:10038000086000B5114880475DF804EB104811493A
:100390000A7802700C4810490A680260106890E8F8
:1003A000F00F20301EF0100F08BFB0EC108A80F361
:1003B00009884EF0040E62B6704700BF22ED00E0DF
:1003C000B200002004ED00E0B80000204D810008DC
:1003D000A7000020A8000020C000002070470000F7
:1003E0001CB50C46064B7B4469460090204600F045
:1003F00024FB04460020694600F032FB20461CBD69
:10040000770600000FB4044910B503AA029800F063
:1004100043FB10BC5DF814FB700000200FB41CB54A
:10042000084B06AA7B4469460090059800F005FB3E
:1004300004460020694600F013FB20461CBC5DF812
:1004400014FB00003906000070B50C460546012A71
:1004500005D02878800600D5EA69002302E0012350
:1004600005E05B1C934202D2E05C0028F9D1A86948
:10047000E618C01AA861286A18442862284600F0C5
:1004800031FA04E0D5E9012114F8010B9047B44298
:10049000F8D3284600F03CFA70BD00002DE9F04189
:1004A0000646002410687529314616A510D000F0C4
:1004B00040FA002802DA404213A507E031688A07B3
:1004C00001D512A502E0490704D511A5012401E0D8
:1004D00000F038FA00210A2206F1240709E0B0FBF7
:1004E000F2FCB0FBF2F302FB1C00303078541846EB
:1004F000491C0028F3D123462A463046BDE8F04186
:1005000000F029BA000000002D0000002B000000C0
:1005100020000000F0B40D460188090502D5214CE9
:100520007C4402E01F4C7C440E34002100F1240680
:1005300008E002F00F071209E75D42EA03721B09A7
:100540007754491C52EA0307F3D1027800231207BB
:1005500004D5702D06D009B1022311342246F0BC17
:1005600000F0F9B901231034F8E770B504460D46E0
:100570002146106800F0E6F9024629462046BDE80B
:1005800070400023C6E7D21D22F00703D3E9002301
:10059000C0E70368126843F0200303600823C361C7
:1005A0000023B7E71CD500002DE9F05F894604461B
:1005B0004FF0000ADFF874B1FB44C0F820A02046D9
:1005C000E1688847002874D0252806D0D4E90121A5
:1005D0009047206A401C2062F1E700265F462046D3
:1005E000E16888472028054607DB312D05D27819B8
:1005F00010F8200C08B10643F1E7B00701D526F04A
:100600000406C4F81CA00027C4F818A02A2D09D09D
:1006100028460BF099F938B304EB8708303DC8F849
:10062000185019E059F8041B204604EB8702916129
:10063000E1688847012F054618D1E069002820DAD3
:1006400026F020061DE0D8F8180000EB800005EB2E
:1006500040003038C8F818002046E1688847054651
:100660000BF072F90028EED1012F0AD02E2D08D1FF
:100670002046E16888477F1C0546022F46F0200689
:10068000C4DBA069002803DA404246F00106A061FD
:10069000F00701D026F010066C2D0BD0682D09D084
:1006A0004C2D39D06A2D35D0742D35D07A2D33D0DC
:1006B00016E038E0E1682F4620468847B8420546F4
:1006C00009D16C2F26D04FF48060E16806432046A4
:1006D0008847054604E06C2F1AD04FF4807006431B
:1006E0000DB3A5F14100192802D8203546F4006663
:1006F0004A462946204626604E46FFF77FFD80B1D8
:1007000001280BD0F61D26F0070000F1080956E776
:100710004020E4E78020D8E70020D6E706F104096E
:100720004DE7284652E7206ABDE8F09FACD40000B0
:1007300030B505460B462A4613F8014B12F8010B5B
:1007400008B1A042F8D01CB1002802D06D1CF1E71E
:10075000284630BD10B5431C02E010F8011B71B1F2
:100760008107FAD14FF0013202C88C1A8C4314EA87
:10077000C211F9D0C01A0A0603D0C01E10BDC01A9B
:1007800010BD0A0401D0801E10BD0902FCD0401E1D
:1007900010BD421E12F8013F002BFBD111F8013BA6
:1007A000002B02F8013BF9D17047032A40F2308058
:1007B00010F0030C00F0158011F8013BBCF1020FA2
:1007C000624498BF11F801CB00F8013B38BF11F823
:1007D000013BA2F1040298BF00F801CB38BF00F83A
:1007E000013B11F0030300F03D82083AC0F008809D
:1007F00051F8043B083A51F804CBA0E80810F5E79B
:10080000121D5CBF51F8043B40F8043BAFF300807D
:10081000D20724BF11F8013B11F801CB48BF11F8F2
:10082000012B24BF00F8013B00F801CB48BF00F8C2
:10083000012B70474FF000020429C0F0128010F025
:10084000030C00F01B80CCF1040CBCF1020F18BFAC
:1008500000F8012BA8BF20F8022BA1EB0C0100F03F
:100860000DB85FEAC17C24BF00F8012B00F8012B12
:1008700048BF00F8012B70474FF0000200B5134647
:1008800094469646203922BFA0E80C50A0E80C50B0
:10089000B1F12001BFF4F7AF090728BFA0E80C5061
:1008A00048BF0CC05DF804EB890028BF40F8042B5A
:1008B00008BF704748BF20F8022B11F0804F18BFC7
:1008C00000F8012B7047704770477047704710B5AC
:1008D00000F0FAF9006810BD10B5044600F0F4F914
:1008E000046010BD70B5044685690068C10601D575
:1008F000302600E02026C00707D070BDD4E90121D2
:1009000030469047206A401C20626D1EF6D570BDAF
:1009100070B5044685690078C00707D170BDD4E979
:10092000012120209047206A401C20626D1EF6D5D0
:1009300070BD09684A0501D540B27047C905FCD5AC
:1009400000B2704709684A0501D5C0B27047C905B1
:10095000FCD580B270472DE9F0470D469946924686
:10096000044600F124080168880604D5E06921F0F6
:100970001001216000E00120A84201DD471B00E0DA
:100980000027A1697A1902EB0900081AA0612078F2
:10099000C00602D42046FFF7A5FF002608E0D4E9F0
:1009A00001211AF806009047206A401C761C20623C
:1009B0004E45F4DB2078C0060AD52046FFF792FFAB
:1009C00006E0D4E9012130209047206A401C2062D3
:1009D000381EA7F10107F4DC07E0D4E9012118F87B
:1009E00005009047206A401C2062281EA5F10105E1
:1009F000F3DC2046FFF78CFF2078000602D50220AA
:100A0000BDE8F0870120FBE711680268006A530522
:100A100001D508700AE0D30501D5088006E0130669
:100A200003D5C217C1E9000200E008600120704749
:100A300001694A1C02610878704700B58FB0CDE9A2
:100A400001310021059105497944CDE90310114692
:100A50006846FFF7A9FD0FB000BD0000E5FFFFFFEE
:100A60000A6802F8010B0A60704710B5436913B1B8
:100A7000AFF3008001E0FFF7E7FC012010BD127822
:100A800000F124010A7000224A700122EDE711688A
:100A90004FF0FF32E9E70000074B70B50D467B448D
:100AA000FFF7CBFF0446284600F0FAFC10B14FF0E8
:100AB000FF3070BD204670BDD3AF00002DE9FF5F51
:100AC00015468A460446DFF8AC80F8440027D8E98A
:100AD00000103E46CDE9001010E03AF816106A46C4
:100AE00002A800F0E1FC411C07D02178890603D55B
:100AF000E269391891420DD80744761C20788006A7
:100B000002D5E069B84205DDAE42E6DB3AF81600F0
:100B10000028E2D1A069C01BA0612046FFF7E2FED9
:100B2000D8E90010CDE90010002017E03AF81810BD
:100B30006A4602A800F0B8FCB0F1FF3F81460BD036
:100B400000250DF1080B05E0D4E901211BF8050093
:100B500090476D1C4D45F7D308F10100B042804627
:100B6000E4DB206A384420622046FFF7D1FEBDE86E
:100B7000FF9F0000AECF00002DE9F0418046D21D5E
:100B800022F007020025D2E90002F52915A614D0AB
:100B9000011E72F1000106DA0023D0EB030063EBC3
:100BA000020211A608E0D8F800108B0701D50FA6A5
:100BB00002E0490701D50EA601251146002408F1DF
:100BC000240704E000F084F830323A55641C50EAFF
:100BD0000102F7D12B46324621464046BDE8F0419E
:100BE000FFF7B9BE000000002D0000002B00000040
:100BF0002000000030B4002100F1240408E002F0DD
:100C00000705D208303542EA4372DB086554491CB7
:100C100052EA0305F3D10468002310A2250707D583
:100C2000A40600D421B1C46901230DA2641EC461CD
:100C300030BCFFF790BE10B5044621461068FFF7A0
:100C400081FE02462046BDE810400023D2E7D21DB7
:100C500022F00701D1E90023CCE7000000000000EA
:100C60003000000010B5203AC0F00B80B1E81850F9
:100C7000203AA0E81850B1E81850A0E81850BFF486
:100C8000F5AF5FEA027C24BFB1E81850A0E8185025
:100C900044BF18C918C0BDE810405FEA827C24BF79
:100CA00051F8043B40F8043B08BF7047D20728BF07
:100CB00031F8023B48BF11F8012B28BF20F8023B56
:100CC00048BF00F8012B704700487047343A0020B5
:100CD00030B5B0F10A024FEA900E71F100034EEA0E
:100CE000817EB0EB0E0061EB91014FEA101E4EEADF
:100CF000017E10EB0E0041EB11114FEA102E4EEA6F
:100D0000016E10EB0E0041EB11214FEA104E4EEA3E
:100D1000014E10EB0E0041EB1141401841F1000172
:100D20004FEAD00040EA41704FEAD10110EB800554
:100D30004FEA810444EA907444EB01046D1944EBDA
:100D40000404521BA3414FF0000348BF0A3200D5F0
:100D500030BD401C41F1000130BD70472DE9FF4F0F
:100D60000C461E464FF0FF378BB0D2E90001DDF88C
:100D700060800A908A46C1F30A5505B93D460021B4
:100D800008464FF00000BAF1000F00F4400005DA09
:100D900000EB80004FF4400101EA50004FEA905907
:100DA000B9F1010F00DDB9460A9850EA4A000ED0A9
:100DB00044F61050A5F2FF3545432F14B8F1000F4B
:100DC0001ED07542291E1EDDC9F100021CE0B8F1DB
:100DD000010F4FF0000001D0302103E0F24305E0A5
:100DE0002154401CB042FBDB30460022002121543C
:100DF0000B99C1F80880C1E900200FB0BDE8F08F61
:100E0000BD1B6D1CDEE74A4600DA694206A800F009
:100E1000E1FB06AB93E8070003AB83E8070050460D
:100E20000A9900F093FC8DE80700A0F500501F38E8
:100E300000900398002D0ADD42F21F014A46084443
:100E4000002303A90390684600F0FCFE09E0A0F52A
:100E500000504A461F38002303A90390684600F05B
:100E600006FF8DE807000004000C03D04FF0FF30B0
:100E7000410800E01046B8F1000F03D000220092B4
:100E800015461EE0751E05D4FFF722FF303262556D
:100E90006D1EF9D5B3460122084302D000227F1C03
:100EA00004E02078302801D100227F1E002A099713
:100EB00084D01DE0112D07DAFFF70AFF30326255AA
:100EC0006D1C50EA0102F5D1084302D00098C8B168
:100ED0000EE00021681E05E0235C625C635422542E
:100EE000401E491C8142F7DBAB46A81B401E0990FF
:100EF000002004F80B000B98099AC0F80880C0E99C
:100F0000002B7AE711264FF0000857E72DE9F04F44
:100F100088460446D21D22F0070191B0D1E90001B4
:100F2000CDE90A010AF0BBFC02460B98C00F01D0C4
:100F30002D2007E02068810701D52B2002E0202129
:100F400001EAC000032A099001D0072A05DB034605
:100F50004146204600F0FEFA0BE12078800601D5DC
:100F6000E06900E00620B8F1650F814606D0B8F1CF
:100F7000660F18D0B8F1670F70D131E00020B9F1D9
:100F8000110F009001DB112301E009F101030AAA0E
:100F900001A90CA8FFF7E2FEDDE90C70002609F1BB
:100FA0000105834647E001204B4600904FF0004783
:100FB0000AAA01A90CA8FFF7D1FEDDE90DB00C9932
:100FC0005D46002610B909F101000D18B9EB0500C6
:100FD00003D4C0F1FF3609F10105A5EB09002BE0B0
:100FE000B9F1010F01DA4FF001090020B9F1110F39
:100FF0000090484601DD112300E003460AAA01A93A
:101000000CA8FFF7ABFEDDE90C704D4600268346C9
:10101000207800070AD4AB4500DA5D4601A8012D0F
:1010200004DD411911F8011C302907D04F4502DABF
:1010300017F1040F04DA012082460FE06D1EEEE77F
:10104000002F02DCED1B3E4403E0781CA84200DDCB
:101050007D1CB81B00F1010A4FF000472078000703
:1010600003D4AA4501DB4FF0FF3A0021B7F1004F4E
:101070000DF143088DF8431024D002202B23002FBC
:1010800001DA7F422D230A21021EA0F1010000DCBB
:101090005FB197FBF1FC97FBF1F201FB1C7C17465B
:1010A0000CF1300C08F801CDEEE7A8F10100037057
:1010B0002188090501D5452100E06521A0F101083D
:1010C00000F8011C09980FA9A1EB0807FF1D00B14A
:1010D0000120411901EBEA70A1693844081A401E49
:1010E000A0612078C00602D42046FFF7FBFB0998D8
:1010F00028B1D4E901219047206A401C2062207861
:10110000C00622D52046FFF7EDFB1EE0002E04DBD3
:10111000B34502DD01A8805D00E03020D4E9012163
:101120009047206A401C2062761CAAF101005FEA09
:10113000000A0AD100F00AFAC0680168405CD4E9EC
:1011400001219047206A401C2062281EA5F101055C
:10115000DCDC07E0D4E9012118F8010B9047206A94
:10116000401C2062381EA7F10107F3DC2046FFF780
:10117000CFFB032011B041E62DE9F04F04460D46A8
:10118000D21D22F0070089B0D0E9009748463946C1
:101190000AF085FB0246F80F01D02D2307E02068F6
:1011A000810701D52B2302E0202101EAC0038DF83D
:1011B00020300BB1012000E00020032A824601D03C
:1011C000072A04DB2946204600F0C4F93FE12078D5
:1011D000800601D40D2500E0E569C7F30A560D2D00
:1011E00049DA00214FEA175B08464FF00000002F54
:1011F00000F4400007DA00EB80004FF4400100EB00
:10120000D07001EA60008115012901DD4FF0FF3146
:1012100000224FEA850CBCF1180F06D31346ACF13F
:1012200018004FF08052C24003E04FF4801323FABD
:101230000CF30CF10C0CBCF1200F04D3ACF1200C1E
:1012400009FA0CF001E007FA0CF000294FF0004811
:1012500001DD18B90FE00ED140450CD319EB02099E
:101260005F4121B9404502D19F4329EA0209BBEB06
:10127000175F00D0761C2088000502D57B48784493
:1012800002E07A487844193808AA302302F80A3074
:10129000037C0AF10101002E0AF1020A53546A4646
:1012A00002DC4FF0300101E04FF031014FF0010856
:1012B0008DF8001002D0A6F2FF3603E059EA47018C
:1012C00000D06B4E002D02DC2178090704D54FF0C9
:1012D00002082E218DF80110C44600210BE0C7F34F
:1012E00003433F01C35C491C6D1E02F80830052909
:1012F00008F1010801DA002DF1DC00210CE000EB1F
:101300001973491C1B786D1E082902F808304FEA32
:10131000091908F1010801DA002DF0DC21688B06BB
:1013200002D516E0A8F10108E04505DD02EB08034F
:1013300013F8013C302BF5D0B8F1000F09DD02EBBA
:10134000080313F8013C2E2B03D1090701D4A8F19F
:101350000108002D05DD3E2102F808106D1E08F180
:101360000108407C002E02F8080008F1010804DAA8
:101370002D20764202F8080002E02B2002F8080037
:101380000A214FF47A70864208F101080BDB96FBC4
:10139000F0F3303302F8083096FBF0F308F101085F
:1013A00000FB136601E0642E0CDB642096FBF0F377
:1013B000303302F8083096FBF0F308F1010800FB27
:1013C000136601E00A2E06DB96FBF1F0303002F8DE
:1013D000080008F1010896FBF1F001FB10603030C5
:1013E00002F80800A16908F1010808EB050202EB08
:1013F0000A00081AA0612078C00602D42046FFF730
:1014000071FA216A08AE01EB0A00206204E0D4E917
:10141000012116F8010B9047BAF1010AF7D22078A2
:10142000C00602D52046FFF75DFA6E4609E016F8C1
:10143000010B3E280FD0D4E901219047206A401CBF
:101440002062B8F10108F2D22046FFF761FA09B034
:101450000320BDE8F08F206A2844206203E0D4E92D
:101460000121302090476D1EEBD3F8E715C800002E
:1014700002FCFFFF10B5436913B1AFF3008001E038
:10148000FFF71CFB012010BD128800F124018284AB
:101490000022C2840122EDE711684FF0FF32E9E734
:1014A000007B00F08000704770B516460C4605467C
:1014B00000F044F8036893F80101012806D0FF2CDE
:1014C0000FD8185D68B101202C7070BDD3F80701EA
:1014D0003246214603F2071303442846BDE8704014
:1014E00018474FF0FF3070BD00487047343A002075
:1014F0007546FFF7F9FFAE4605006946534620F0F2
:101500000700854618B020B5FEF7F2FEBDE8204082
:101510004FF000064FF000074FF000084FF0000BAF
:1015200021F00701AC46ACE8C009ACE8C009ACE862
:10153000C009ACE8C0098D467047000010B500F046
:1015400005F8001D10BD00BF05A60000004870474B
:10155000543A00202DE9F0411F4604460326016855
:10156000072A01F4006004DB08B116A505E016A502
:1015700003E008B115A500E015A521F010002060DA
:10158000A069C01EA0610FB1401EA0612046FFF7F8
:10159000A9F94FB1D4E9012138469047206A401C8F
:1015A0002062C01C206206E0206AFAE7D4E901212B
:1015B00015F8010B9047761EF8D22046FFF7A8F9E0
:1015C000BDE8F0814E414E006E616E00494E46000E
:1015D000696E66002DE9F047814616468AB03548A7
:1015E00078440DC88DE80D0032487844801C03AC67
:1015F0000DC884E80D0041F69B300844372190FB6C
:10160000F1F290FBF1F5A5F1800501FB12041B3C02
:1016100002D56442012000E00020DFF898A0804657
:101620000027FA44AAF1BE0A0EE0E0070AD03246CB
:10163000684607EB470101230AEB810100F017FB25
:101640008DE8070064107F1C002CEED1194F7F44F9
:10165000AE3F19E0E80715D007EB04100DF1180AAA
:1016600090E80E008AE80E00C068F04201D1981997
:1016700008903246012306A903A800F0F8FA03AB4C
:1016800083E807006D10641C002DE3D14FF00103C7
:1016900032466946B8F1000F03A802D000F0D2FA32
:1016A00001E000F0E4FAC9E90001C9F808200AB035
:1016B000BDE8F08744C5000010B50446AFF30080D4
:1016C0002046BDE81040FEF7FEBD00004FF0013C93
:1016D00050F8042B51F8043B9A4221D1A2EB0C03A1
:1016E000934313EACC1317D150F8042B51F8043B61
:1016F0009A4215D1A2EB0C03934313EACC130BD1FE
:1017000050F8042B51F8043B9A4209D1A2EB0C0388
:10171000934313EACC13DBD04FF00000704700BFB7
:10172000D01A01BAB1FA81F101F0180122FA01F0E0
:10173000CB40C1F12001DBB2C0B2C01A2CFA01F3D8
:10174000D11A914311EAC311E6D170475FEA400C08
:1017500008BF91F0000F4FEA8C234FEAC12243EA01
:1017600051514FEA1C5018BF00F5F0404FEA3000CD
:1017700018BF41F000415FEA6C5C00F02980BCF1C9
:10178000FF3F08BF40F080407047130C06BF1204B3
:101790004FF0100C4FF0000C130E04BF12020CF1AE
:1017A000080C130F04BF12010CF1040C930F04BFBB
:1017B00092000CF1020CD30F04BF52000CF1010C8B
:1017C00011464FF00002A0F11F00A0EB0C00704783
:1017D00011F0004F08BF704731F000413FF4D5AF22
:1017E0000B0C06BF09044FF0100C4FF0000C0B0E51
:1017F00004BF09020CF1080C0B0F04BF09010CF126
:10180000040C8B0F04BF89000CF1020CCB0F04BF3A
:1018100049000CF1010CCCF12003A0EB0C0022FAE2
:1018200003F302FA0CF241EA030100F101007047F0
:1018300020F07F4C80EA030023F07F47ACEB0703E6
:1018400003F57C5300F0004003F1FF032DE98049CC
:101850004FEA154B09B44FEA144325EA0B4E24EA2C
:1018600003480FF2042606EB132749083E785FEA87
:10187000320203FB0667C7F5000707FB06F64FEACF
:1018800054374FEAD64606F1020607FB066CCCF148
:10189000005C4FEA1C472CEA074C07FB06F40CFBE4
:1018A00006F504EB15464FEA961634BF00204FF0BC
:1018B00000404FEAD13706FB07FC4FEA1C4C0CFBFB
:1018C0000BF7D21B03FB0CF761EB07010CFB0EF7C8
:1018D000B0EB074072EB17420CFB08F734BFA2EBEA
:1018E0000742B2EB074261EB17414FEA0C444FEA63
:1018F000910706FB07FC4FEA1C4C0CFB0BF7B0EB07
:10190000C74072EB573203FB0CF734BFA2EBC74260
:10191000B2EBC74261EB57310CFB0EF7B0EBC700DF
:1019200072EB57720CFB08F734BFA2EBC702B2EBA5
:10193000C70261EB5771039F4FEA816141EA92113F
:1019400004EBCC044FEAD1374FEA826206FB07FC76
:1019500042EA90124FEA80604FEA1C4C0CFB0BF7F6
:10196000D21B03FB0CF761EB07010CFB0EF7B0EB8E
:10197000074072EB17420CFB08F734BFA2EB07429B
:10198000B2EB074261EB17414FEA8C554FEA9107E2
:1019900004EB9C2406FB07FC4FEA1C4C0CFB0BF7EA
:1019A000B0EBC74072EB573203FB0CF734BFA2EB2E
:1019B000C742B2EBC74261EB57310CFB0EF7B0EBFD
:1019C000C70072EB57720CFB08F734BFA2EBC702DB
:1019D000B2EBC70261EB577115EB4C254FEA816101
:1019E00041EA92114FEA82624FEAD13742EA9012FD
:1019F00006FB07FC44F100044FEA80604FEA1C4CF0
:101A00000CFB0BF7D21B03FB0CF761EB07010CFB84
:101A10000EF7B0EB074072EB17420CFB08F734BF30
:101A2000A2EB0742B2EB074261EB174115EB1C1525
:101A30004FEA813141EA92414FEA823242EA9042D2
:101A40004FEA80304FEA0C7644F1000448EA034341
:101A50004EEA0B484FF0000EB2EB080C71EB030797
:101A600024BF624639464EEB0E0E4FF0000B0018B5
:101A7000524149414BEB0B0BB2EB080C71EB0307E6
:101A80007BF1000B24BF624639464EEB0E0E4FF041
:101A9000000B0018524149414BEB0B0BB2EB080C09
:101AA00071EB03077BF1000B24BF624639464EEB16
:101AB0000E0E51EA020718BF46F0010616EB0E762D
:101AC00055F1000254F1000103D5BDE88901BDE8DC
:101AD0000088BDE88901BDE80048B619524141EBD4
:101AE0000101A3F10103704780807F7E7D7C7B7ABA
:101AF0007978777676757473727171706F6E6E6DBA
:101B00006C6C6B6A6A69686867666665646463635F
:101B100062616160605F5F5E5E5D5D5C5C5B5B5AE5
:101B20005A59595858575756565555555454535352
:101B300052525251515050504F4F4F4E4E4D4D4DAD
:101B40004C4C4C4B4B4B4A4A4A49494948484847F8
:101B50004747474646464545454444444443434336
:101B60004342424242414141002B9C4630D47700DF
:101B70002BD01CB54FEA370703B44FF010004FF0DD
:101B80001001BAF1000F06D0BCF1000FDCBF40F02D
:101B9000080040F008014FF000000FBCBDE8104005
:101BA0000BF1010BBBF1010F08BF5FEA170722BF62
:101BB00012F1010211F101014FF0004143F1000364
:101BC00000F0004043EA00007047F9D35708D0E71F
:101BD00046EA064613F1400F4FEA16461FDD13F1A1
:101BE000200FDFBF16430A46002120335B42BED0E0
:101BF000C3F1200746EA064602FA07F74FEA1646FF
:101C000046EA0706C3F1200722FA03F201FA07F7B2
:101C100021FA03F14FF0000342EA0702A7E746EA80
:101C2000020646EA06464FEA164646EA0106BCBFE9
:101C300046EA0646360C4FF000034FF000024FF024
:101C4000000194E72DE9804C9A46934670B491E8E0
:101C5000380007C831EA400C48BF34EA430C03D5CA
:101C6000FFF7E6FDFFF780FFF0BCBDE8008C2DE933
:101C7000804C9A46934670B491E8380007C810F03B
:101C8000804F08BF13F0804F03D100F005F8FFF735
:101C90006BFFF0BCBDE8008C20F07F4780EA0300BA
:101CA00023F07F4C07EB0C03A3F57C5300F00040BE
:101CB000A3F1FE0392F0000F00F0B38095F0000F47
:101CC00000F077802DE901494FEA11404FEA1446B0
:101CD00021EA004800FB06FC24EA064708FB06F65A
:101CE00007FB08F800FB07F718EB06484CEB164C0F
:101CF0004FEA124B18EB07484FEA15464CEB1740DA
:101D000022EA0B4E0BFB06FC25EA06470EFB06F605
:101D100007FB0EFE0BFB07F71EEB064E4CEB164CBB
:101D20004FF000061EEB074E4CEB174B18EB0B0861
:101D300040F1000018EB0E0B58EB000840F10000DA
:101D40008F1A4FF000013CBFC943661B14BFB5EBAF
:101D5000040C00213CBFC943F61B4FEA17444EEA6E
:101D60008E0E27EA04454FEA1C4704FB07622CEA63
:101D7000074C05FB07F70CFB05F604FB0CFC16EB08
:101D8000074642EB174216EB0C4642EB1C421BEB9C
:101D9000060658EB0202414146EA9E0601D5BDE81F
:101DA0000189B619524141EB0101A3F10103BDE8DC
:101DB00001894FEA14454FEA114724EA054621EA12
:101DC000074C05FB07F406FB07F70CFB06F105FBC8
:101DD0000CFC11EB074144EB17444FEA124711EB9F
:101DE0000C4144EB1C4422EA074C05FB07F206FBBE
:101DF00007F70CFB06F605FB0CFC16EB074642EB5F
:101E0000174216EB0C4642EB1C456A1854F10001D0
:101E100048BF7047B619524141EB0101A3F10103DC
:101E2000704795F0000F37D04FEA11424FEA144740
:101E300021EA024624EA074C02FB07F106FB07F7FA
:101E40000CFB06F402FB0CFC14EB074441EB1741BE
:101E50004FEA154714EB0C4441EB1C4125EA074CB3
:101E600002FB07F506FB07F70CFB06F602FB0CFC72
:101E700016EB074645EB174516EB0C4645EB1C42A7
:101E8000121951F1000148BF7047B619524141EB98
:101E90000101A3F1010370474FEA14454FEA1147CE
:101EA00024EA054621EA074C05FB07F106FB07F784
:101EB0000CFB06F24FF0000605FB0CFC12EB074290
:101EC00041EB174112EB0C4251EB1C4148BF7047EC
:101ED000921841EB0101A3F10103704700BFFEE737
:101EE00008B500BF1DE06A4600210E48006805F0F5
:101EF000E1FC0DA009F0AAFCC82005F08FF94FF411
:101F00007A7006F025F9002005F088F90B48008862
:101F1000401C0A4908806A4600210248006805F012
:101F200072FDE0E70C000020D7BCB1B8B7A2B7C57E
:101F300031BAC5D0FBB4ABB5A50000001C00002031
:101F400008B500BF1DE06A4600210E48006805F094
:101F5000B1FC0DA009F07AFCC82005F067F94FF438
:101F60007A7006F0F5F8002005F060F90B4800885B
:101F7000401C0A4908806A4600210248006805F0B2
:101F800042FDE0E710000020D7BCB1B8B7A2B7C54A
:101F900032BAC5D0FBB4ABB5A50000001E000020CE
:101FA00010B500241448006820F030001249086081
:101FB00008460068086004E0601CC4B2012009F013
:101FC0002DFD0E48006808B13C2CF5DB3C2C01D1FE
:101FD000002010BD002404E0601CC4B2012009F000
:101FE0001DFD0648006808B93C2CF5DB3C2C01D1EE
:101FF0000020EEE70120ECE7001002400802424218
:102000001CB50121102006F08FFF04200090012054
:102010008DF8040000208DF8060002208DF80500E0
:1020200001208DF807006946014800F088FB1CBDBF
:102030000010024010B5002404E0601CC4B201206E
:1020400009F0ECFC0D48006808B1642CF5DB0024B5
:1020500004E0601CC4B2012009F0E0FC07480068FD
:1020600008B9642CF5DB282009F0D8FC0348006887
:10207000012800D110BD0020FCE700000802424208
:1020800070B50025002400BF06E06006040EFFF7CF
:10209000D1FF0443681CC5B2082DF6DB204670BD95
:1020A0007CB505460E4600F029F8FFF779FF0128B8
:1020B0001FD1002405E0FFF7E3FF0DF80400601CCA
:1020C000C4B2052CF7DB9DF800009DF80110084410
:1020D0009DF8021008449DF8031008449DF8041070
:1020E000884208D19DF8000030709DF802002870E9
:1020F00001E000207CBD0120FCE7000010B50C4889
:10210000006820F030000A4908600846006840F086
:1021100010000860002007490860142009F048FCFE
:1021200001200549C1F888021E2009F077FC10BD86
:1021300000100240880242420000424200B58BB0CB
:102140000121084606F010FF0121084606F0ECFECA
:102150000F20099002208DF8280003208DF8290017
:1021600009A92F4800F0EBFA012200212C4800F0C9
:102170002EFB012211462A4800F029FB01220221F0
:10218000274800F024FB01220321254800F01FFB13
:102190001420ADF8180040F28F1007900020ADF821
:1021A0001A00ADF8200006A94FF0804007F0A0FB10
:1021B0006020ADF804000020ADF81000039001206D
:1021C000ADF8060001A9800707F042FA01A94FF017
:1021D000804007F085FA01A94FF0804007F0E0FA4F
:1021E00001A94FF0804007F035FB0821C80607F031
:1021F0006DFA0821C80607F0C5FA0821C80607F0DD
:102200001FFB0821C80607F061FB0121880707F0C2
:1022100007FA0121880707F00FFA0BB000BD000094
:10222000000002407047000010B590B00446342111
:1022300002A8FEF721FB94B94FF47A7002AB00229A
:1022400046A1009046A007F001F84FF4FA6005F0AF
:102250007FFF0FAA00214448006805F0D4FB4FF42B
:102260007A7002AB00223DA1009040A006F0EEFF84
:102270004FF47A7002AB002238A100903DA006F026
:10228000E5FF002C23D14FF47A7002AB002233A17A
:10229000009039A006F0DAFF4FF4FA6002AB00229A
:1022A00038A100903AA006F0D1FF012802D142499E
:1022B000087002E00220404908704FF4FA6005F00F
:1022C00047FF0FAA00212848006805F09CFB4FF447
:1022D0007A7002AB002221A1009038A006F0B6FF70
:1022E0004FF47A7002AB00221CA1009036A006F0D9
:1022F000ADFF4FF47A7002AB002237A1009038A0F6
:1023000006F0A4FF68B902203F4908703FA01021E1
:102310000B46A022CDE900106621142004F072FDC6
:1023200005E00120384908703DA009F08FFA4FF40C
:102330007A7002AB002209A100903DA006F086FF52
:10234000C82005F005FF4FF417713C48FEF772FAFC
:102350003B48006805F028FB10B010BD4F4B000053
:1023600041542B525354000000000020415445308A
:10237000000000004154000041542B43574D4F448E
:10238000453D3100434F4E4E454354454400000007
:1023900041542B43574A41503D2250696F6E656549
:1023A000722773206950686F6E65222C227A6861EB
:1023B0006E6771696E2200001800002041542B43A3
:1023C00049504D55583D300041542B4349504D4FD5
:1023D00044453D3100000000434F4E4E45435400FC
:1023E00041542B43495053544152543D225443507D
:1023F000222C223138332E3233302E34302E3333E8
:10240000222C3830000000001900002054435020D6
:102410004E4F5420434F4E4E454354210000000080
:10242000B7FECEF1C6F7C1ACBDD3B3C9B9A60000A3
:1024300041542B43495053454E440000FE140020A4
:102440000400002008B501201549087000F03EF88E
:102450004FF4E13008F0CAFC012000F027F86A468A
:102460004FF4FA610F48006805F024FA9DF8000067
:1024700080B900200A4908700B49B1F858120A4A7D
:102480005054114681F85A024FF4C87005F060FEAE
:10249000012008BD00200249087000BFF9E70000D4
:1024A0002E00002000000020FE14002010B504467D
:1024B000012C04D10121044800F0AEF903E0012110
:1024C000014800F0A7F910BD000802401CB5012129
:1024D000042006F029FD012000908DF80400002062
:1024E0008DF8060003208DF8050001208DF8070007
:1024F0006946044800F023F90121024800F08AF9F6
:102500001CBD00000008024010B505F003F91020C2
:1025100000F02CF804A0FDF775FF0748006805F0EF
:1025200043FA05F009F910BDD6D0B6CFCFECD3A64B
:10253000B3C9B9A60D0A00000800002008B505F0CF
:10254000E9F8202000F018F8012809D1202000F037
:102550000DF86B46012211460348006805F018F893
:1025600005F0EAF808BD00001400002001490860E9
:1025700070470000143C014001460020034A1268E5
:102580000A400AB1012000E000207047143C0140DD
:10259000002123498279002A3AD00A46126803684A
:1025A0009A430B461A600A1D126803689A430B1D72
:1025B0001A60027911440A6803681A430A60184ACB
:1025C0000832126803689A43154B08331A601A1DC3
:1025D000126803689A43124B0C331A604279102A2E
:1025E0000ED11A1F126803681A430D4B08331A6084
:1025F0001A1D126803681A43094B0C331A600DE068
:102600000749427911440A6803681A430A6005E0E1
:10261000027911440A6803689A430A60704700000F
:10262000003C014051B18200A2F1C042126842F068
:1026300001038200A2F1C042136009E08200A2F10E
:10264000C0421268034B1A408300A3F1C0431A60D2
:1026500070470000FEFF0F00D0E901121143C2686D
:102660001143026911434269114382691143C269EE
:102670001143026A1143426A1143826A1143C26ADA
:102680001143026B114302689200A2F1C042116033
:10269000816808290BD101688900A1F1C04109684E
:1026A00041F0400201688900A1F1C0410A60416B1C
:1026B0000968426B526841EA0211426B926841EA32
:1026C0000221426B928941EA0241426B128A41EA3D
:1026D0000251426B127D41EA0261426B92691143E1
:1026E0000268521C9200A2F1C0421160C16AB1F5A9
:1026F000804F1BD1816B0968826B526841EA0211DD
:10270000826B926841EA0221826B128A41EA02518D
:10271000826B127D41EA0261826B92691143026809
:102720009200A2F1C042C2F8041107E06FF07042BB
:1027300001688900A1F1C041C1F804217047F0B5DA
:102740000A4600210023002400BF3DE0012505FAD0
:1027500001F3156805EA03049C4234D105684F0073
:102760000326BE40B543056015794E00B5400668A6
:10277000354305601579012D02D01579022D16D14A
:1027800085684F000326BE40B543856055794E00ED
:10279000B540866835438560456801268E40B5435F
:1027A0004560456896798E40B6B235434560C56848
:1027B0004F000326BE40B543C560D5794E00B540F5
:1027C000C6683543C560491C1029BFD3F0BDF0B5BC
:1027D000002300244D07ED0E02FA05F3CE1000F1A0
:1027E000200555F826504E07F70E0F26BE40B5437C
:1027F000CF1000F1200646F82750CE1000F120053A
:1028000055F8265045EA0304CE1000F1200545F89E
:102810002640F0BD41837047018370472DE9F043A6
:102820009DB004460F4615461E46DDF89080642193
:1028300004A8FEF721F80020019002900390207078
:10284000434632461FA104A8FDF7E8FD04A8FDF7A2
:1028500081FF81464A461DA101A8FDF7DFFD1CA1AD
:102860002046FDF796FF29462046FDF792FF1CA162
:102870002046FDF78EFF22A12046FDF78AFF39464C
:102880002046FDF786FF21A12046FDF782FF20A10B
:102890002046FDF77EFF24A12046FDF77AFF01A91F
:1028A0002046FDF776FF24A12046FDF772FF04A91C
:1028B0002046FDF76EFF2046FDF74CFF1DB0BDE83A
:1028C000F08300002C3B25732C2573002564000049
:1028D000504F5354202F646576696365732F000051
:1028E0002F64617461706F696E74733F7479706581
:1028F0003D3520485454502F312E310D0A00000030
:102900006170692D6B65793A000000000D0A0000C6
:10291000486F73743A6170692E6865636C6F756493
:10292000732E636F6D0D0A00436F6E74656E742DA8
:102930004C656E6774683A000D0A0D0A00000000CD
:1029400000BFFEE74CF6CC4001490860704700002C
:10295000003000404AF6AA20014908607047000094
:1029600000300040014948607047000000300040DE
:10297000014988607047000000300040014908604C
:1029800070470000003000401FB50121042006F010
:10299000CBFA0121102006F0C7FA00208DF80C00B8
:1029A000022002908DF80F008DF80D0002A9094851
:1029B000FFF7C5FE00208DF80400032000900220E0
:1029C0008DF807008DF8050069460348FFF7B7FE4C
:1029D0001FBD0000000802400010024010B5FFF7C4
:1029E000B9FF10BD70B505460C4645F25550FFF7CE
:1029F000C5FF2846FFF7B6FF2046FFF7B9FFFFF7F0
:102A0000A1FFFFF7A7FF70BD70B505460E46002475
:102A10001048006818B9012004F0A4FB02E000206F
:102A200004F0A0FBFFF7DAFF0B4800783C280BD13D
:102A3000002009490870FDF76DFC044606F058FABD
:102A40002046FDF76BFC04E003480078401C024977
:102A5000087070BD180240422200002000B585B009
:102A60000121102006F060FA0121880306F08CFA9B
:102A700000208DF810008DF8120010200390012026
:102A80008DF8130002208DF8110003A91248FFF7FA
:102A900056FE0421084606F0B9FB102001900120E3
:102AA0008DF80A0000208DF8080008208DF8090034
:102AB00001A8FFF76DFD0A208DF8000001208DF8B8
:102AC000030002208DF8010003208DF80200684603
:102AD00004F0B6FB05B000BD0010024070B504461E
:102AE000002617480588408845431548808846F6E3
:102AF0000401884216D112488079012812D10020A1
:102B00000F4988712A2048812B208881002108469E
:102B100004F014F801200A4988712B2048812A20EA
:102B2000888103E00021084604F008F804F0B6F9B3
:102B3000002602E003480480761CAE42FAD370BD42
:102B4000F01400200000086010B50446002C52D19B
:102B500058498871F02008804FF4A07048800846DA
:102B6000808849F2413188420BD05248808846F62D
:102B70000401884205D04F48808845F210318842D0
:102B80001AD12C204B4908812A2048812B2088818A
:102B90000846808846F60401884205D0454880886A
:102BA00045F21031884206D14FF4A07041490880A7
:102BB0004FF4F070488079E03E48808845F210512B
:102BC000884210D14FF430503A4908814FF42850D0
:102BD00048814FF42C5088814FF4F07008804FF4F6
:102BE0004870488062E022203249088120204881D4
:102BF000212088815AE001202E4988714FF4A0706D
:102C00000880F02048800846808849F24131884297
:102C100005D02848808845F21031884207D12C2001
:102C2000244908812A2048812B2088812BE02148D3
:102C3000808846F60401884207D12C201D4908816E
:102C40002B2048812A2088811DE01A48808845F27F
:102C50001051884210D14FF43050164908814FF47A
:102C6000285048814FF42C5088814FF448700880D8
:102C70004FF4F070488006E022200E4908812120A0
:102C80004881202088810B48808846F604018842CC
:102C900005D00848808845F21031884206D14FF4AB
:102CA000F070044908804FF4A0704880002003F0C1
:102CB000D7FD10BDF01400202DE9FF4F84B08146F0
:102CC0008A460020039002900698A0EB0905079819
:102CD000A0EB0A06CDF80490CDF800A0002D01DD90
:102CE000012705E00DB9002702E04FF0FF376D42E4
:102CF000002E02DD4FF0010806E016B94FF0000883
:102D000002E04FF0FF387642B54201DD2C4600E08C
:102D100034464FF0000B21E0009A91B2019A90B234
:102D200000F022F80398284403900298304402905F
:102D30000398A04205DD0398001B039001983844D6
:102D400001900298A04205DD0298001B02900098B5
:102D5000404400900BF101001FFA80FB601C83458A
:102D6000DADD08B0BDE8F08F30B504460D462946DF
:102D7000204603F0E3FE04F091F80248008802497F
:102D8000088030BD2A00002000000860F0B504462D
:102D90000D4616461F462B46324629462046FFF76B
:102DA0008BFF3B46224629462046FFF785FF3B46E0
:102DB000324639462046FFF77FFF3B4632462946DA
:102DC0003046FFF779FFF0BD2DE9F04306460F4688
:102DD0009046002445460320A0EB48093CE07A1BBE
:102DE00091B2321990B2FFF7BFFF3A1B91B272193C
:102DF00090B2FFF7B9FF3A1991B2721990B2FFF78A
:102E0000B3FF7A1991B2321990B2FFF7ADFF7A1978
:102E100091B2321B90B2FFF7A7FF3A1991B2721B21
:102E200090B2FFF7A1FF7A1B91B2321B90B2FFF76D
:102E30009BFF3A1B91B2721B90B2FFF795FF641C87
:102E4000B9F1000F03DAA000801D814404E0601B8B
:102E500080000A3081446D1EAC42C0DDBDE8F083C5
:102E600070B504460D4616464248808849F2413105
:102E7000884205D03F48808845F21031884214D1FD
:102E80003C49488903F0FEFF201203F0EFFFE0B257
:102E900003F0ECFF3749888903F0F4FF281203F0B0
:102EA000E5FFE8B203F0E2FF5DE03248808845F2DA
:102EB0001051884220D12F49488903F0E3FF2012A6
:102EC00003F0D4FF2B494989491C88B203F0DAFF8B
:102ED000E0B203F0CBFF2749888903F0D3FF281223
:102EE00003F0C4FF23498989491C88B203F0CAFF53
:102EF000E8B203F0BBFF36E01E48808846F60401C6
:102F000088421DD11B488079012804D119480088C6
:102F1000401E001B84B21749488903F0B3FF2012FA
:102F200003F0A4FFE0B203F0A1FF1249888903F087
:102F3000A9FF281203F09AFFE8B203F097FF12E00E
:102F40000C488079012804D10A480088401E001BE3
:102F500084B208494889214603F0AAFF05498889B7
:102F6000294603F0A5FF0348008903490880881C0F
:102F7000068070BDF0140020FEFF076000B5A1B010
:102F80000020209001211A2005F0CEFF01210846E3
:102F900005F0DAFF02201E9001208DF87C00002051
:102FA0008DF87E0002208DF87D0001208DF87F00D5
:102FB0001EA9FE48FFF7C3FB4EF2B3701E9002201D
:102FC0008DF87C0000208DF87E0003208DF87D00B8
:102FD00001208DF87F001EA9F548FFF7B0FB4FF6E2
:102FE00080701E9002208DF87C0000208DF87E00FD
:102FF00003208DF87D0001208DF87F001EA9ED488B
:10300000FFF79DFB0C220021E948FFF7E0FB0C22B3
:103010000121E748FFF7DBFB0C220421E448FFF71E
:10302000D6FB0C220521E248FFF7D1FB0C22072139
:10303000DF48FFF7CCFB0C220821DD48FFF7C7FB78
:103040000C220921DA48FFF7C2FB0C220A21D848DA
:10305000FFF7BDFB0C220D21D548FFF7B8FB0C2272
:103060000E21D348FFF7B3FB0C220F21D048FFF706
:10307000AEFB0C220721CF48FFF7A9FB0C22082149
:10308000CC48FFF7A4FB0C220921CA48FFF79FFB9D
:103090000C220A21C748FFF79AFB0C220B21C548D6
:1030A000FFF795FB0C221146C248FFF790FB0C225C
:1030B0000D21C048FFF78BFB0C220E21BD48FFF706
:1030C00086FB0C220F21BB48FFF781FB01200890F3
:1030D000002009900F200A9000200B900C900D907A
:1030E0000E90012001900020029003200390002008
:1030F00004900590069007900F901090119010206A
:1031000012900020139015901490169017904FF481
:1031100080501890002019904FF480401A900020A1
:103120001B9008A81C9001A81D900FA8FFF794FA07
:1031300001210020FFF776FA322008F039FC012146
:10314000002003F0B5FE322008F032FC002003F02E
:103150007BFB9949888008468088FF280ADB08465F
:1031600080884FF6FF71884204D093488088B0F57C
:10317000134F7CD1D32003F085FE03F05BFB8E4917
:10318000888003F057FB8C49888003F053FB8A4901
:103190008880084680884FF6FF7101EA0020864942
:1031A000888003F047FB84498988084382498880E6
:1031B0000846808849F24131884278D0BF2003F028
:1031C00061FE03F037FB7C49888003F033FB7A49CA
:1031D000888003F02FFB7849888003F02BFB764929
:1031E0008880084680884FF6FF7101EA0020724906
:1031F000888003F01FFB7049898808436E498880E6
:103200000846808846F60401884250D0D42003F056
:1032100039FE03F00FFB6849888003F00BFB664919
:10322000888003F007FB64498880084680884FF651
:10323000FF7101EA00206049888003F0FBFA5E49D3
:10324000898808435C4988800846808845F21031A7
:1032500088422CD04FF45A4003F014FE03F0EAFAEF
:10326000554988804FF45B4003F00CFE00E01EE0FF
:1032700003F0E0FA50498880084680884FF6FF71D5
:1032800001EA00204C4988804FF45C4003F0FAFDCD
:1032900003F0D0FA4849898808434749888008469E
:1032A0008088B0F5004F02D145F210508880424826
:1032B000808849F2413188420BD03F48808845F2EE
:1032C0001031884205D03C48808845F21051884230
:1032D0001DD13A48006820F00F004FF02041C1F89E
:1032E0001C010846D0F81C0120F47060C1F81C01D4
:1032F0000846D0F81C0140F00300C1F81C01084644
:10330000D0F81C0140F40070C1F81C0128E02A48E4
:10331000808846F60401884205D0274880884CF210
:10332000055188421CD12548006820F00F004FF05D
:103330002041C1F81C010846D0F81C0120F470603F
:10334000C1F81C010846D0F81C0140F00A00C1F881
:103350001C010846D0F81C0140F44060C1F81C0173
:103360001548818816A0FDF74DF81348808849F26A
:10337000413188427ED1CF2003F084FD002003F04C
:1033800075FD2098401C2090C12003F06FFD302077
:1033900003F06CFDED2003F075FD642003F066FD85
:1033A000032003F063FD122012E00000000402403D
:1033B000000C024000100240F01400201C0100A08C
:1033C000204C43442049443A25780D0A000000006F
:1033D00003F04CFD812003F049FDE82003F052FD8D
:1033E000852003F043FD102003F040FD7A2003F018
:1033F0003DFDCB2003F046FD392003F037FD2C20A6
:1034000003F034FD002003F031FD342003F02EFDE5
:10341000022003F02BFDF72003F034FD202003F001
:1034200025FDEA2003F02EFD002003F01FFD002003
:1034300003F01CFDC02003F025FD1B2003F016FD4A
:10344000C12003F01FFD012003F010FDC52003F093
:1034500019FD302003F00AFD302003F007FDC720DE
:1034600003F010FDB72003F001FD362003F00AFD44
:10347000482000E0AEE003F0F9FC3A2003F002FD42
:10348000552003F0F3FCB12003F0FCFC002003F016
:10349000EDFC1A2003F0EAFCB62003F0F3FC0A204E
:1034A00003F0E4FCA22003F0E1FCF22003F0EAFCCC
:1034B000002003F0DBFC262003F0E4FC012003F0F5
:1034C000D5FCE02003F0DEFC0F2003F0CFFC2A2027
:1034D00003F0CCFC282003F0C9FC082003F0C6FC54
:1034E0000E2003F0C3FC082003F0C0FC542003F0BE
:1034F000BDFCA92003F0BAFC432003F0B7FC0A206E
:1035000003F0B4FC0F2003F0B1FC002003F0AEFC8C
:10351000002003F0ABFC002003F0A8FC002003F027
:10352000A5FCE12003F0AEFC002003F09FFC152079
:1035300003F09CFC172003F099FC072003F096FC95
:10354000112003F093FC062003F090FC2B2003F0E5
:103550008DFC562003F08AFC3C2003F087FC0520FC
:1035600003F084FC102003F081FC0F2003F07EFCAC
:103570003F2003F07BFC3F2003F078FC0F2003F09A
:1035800075FC2B2003F07EFC002003F06FFC002074
:1035900003F06CFC012003F069FC3F2003F066FCA3
:1035A0002A2003F06FFC002003F060FC002003F0F1
:1035B0005DFC002003F05AFCEF2003F057FC1120C3
:1035C00003F060FC782008F0F3F9292003F05AFC9E
:1035D00003F013B9FE48808846F6040188427CD186
:1035E000112003F04FFC142008F0E2F9D02003F082
:1035F00049FC072003F03AFC422003F037FC1D2071
:1036000003F034FCD12003F03DFC002003F02EFC3D
:103610001A2003F02BFC092003F028FCD22003F031
:1036200031FC012003F022FC222003F01FFCC0200B
:1036300003F028FC102003F019FC3B2003F016FCDB
:10364000002003F013FC022003F010FC112003F013
:103650000DFCC52003F016FC032003F007FCC82076
:1036600003F010FC002003F001FC252003F0FEFB1A
:10367000212003F0FBFB052003F0F8FB002003F002
:10368000F5FB0A2003F0F2FB652003F0EFFB252099
:1036900003F0ECFB772003F0E9FB502003F0E6FB9E
:1036A0000F2003F0E3FB002003F0E0FBF82003F021
:1036B000E9FB012003F0DAFBFE2003F0E3FB00202E
:1036C00003F0D4FB022003F0D1FB202003F0DAFB4F
:1036D000362003F0D7FB082000E02CE003F0C6FB07
:1036E0003A2003F0CFFB552003F0C0FB2B2003F062
:1036F000C9FB002003F0BAFB002003F0B7FB012058
:1037000003F0B4FB3F2003F0B1FB2A2003F0BAFB27
:10371000002003F0ABFB002003F0A8FB012003F026
:10372000A5FBDF2003F0A2FB782008F041F9292057
:1037300003F0A8FB4CE7A648808845F21031884288
:1037400040F07C87ED2003F09DFB012003F08EFB11
:10375000FE2003F08BFBEE2003F094FBDE2003F051
:1037600085FB212003F082FBF12003F08BFB01207D
:1037700003F07CFBDF2003F085FB102003F076FBD9
:10378000C42003F07FFB8F2003F070FBC62003F002
:1037900079FB002003F06AFBE22003F067FBE220E4
:1037A00003F064FBE22003F061FBBF2003F06AFB3F
:1037B000AA2003F05BFBB02003F064FB0D2003F0B4
:1037C00055FB002003F052FB0D2003F04FFB0020BF
:1037D00003F04CFB112003F049FB002003F046FBF3
:1037E000192003F043FB002003F040FB212003F0ED
:1037F0003DFB002003F03AFB2D2003F037FB0020B7
:1038000003F034FB3D2003F031FB002003F02EFBDE
:103810005D2003F02BFB002003F028FB5D2003F06C
:1038200025FB002003F022FBB12003F02BFB8020BE
:1038300003F01CFB002003F019FB8B2003F016FBA8
:10384000002003F013FB962003F010FB002003F090
:103850000DFBB22003F016FB002003F007FB002055
:1038600003F004FB022003F001FB002003F0FEFA4A
:10387000032003F0FBFA002003F0F8FAB32003F072
:1038800001FB002003F0F2FA002003F0EFFA002021
:1038900003F0ECFA002003F0E9FA002003F0E6FA66
:1038A000002003F0E3FA002003F0E0FA002003F028
:1038B000DDFA002003F0DAFA002003F0D7FA002046
:1038C00003F0D4FA002003F0D1FA002003F0CEFA7E
:1038D000002003F0CBFA002003F0C8FA002003F028
:1038E000C5FA002003F0C2FA002003F0BFFA00205E
:1038F00003F0BCFA002003F0B9FA002003F0B6FA96
:10390000002003F0B3FA002003F0B0FA002003F027
:10391000ADFAB42003F0B6FA8B2003F0A7FA00202A
:1039200003F0A4FA962003F0A1FA002003F09EFA17
:10393000A12003F09BFA002003F098FAB52003F0D1
:10394000A1FA022003F092FA002003F08FFA03207C
:1039500003F08CFA002003F089FA042003F086FAC1
:10396000002003F083FAB62003F08CFA002003F065
:103970007DFA002003F07AFAB72003F083FA0020E2
:1039800003F074FA002003F071FA3F2003F06EFA9E
:10399000002003F06BFA5E2003F068FA002003F0C9
:1039A00065FA642003F062FA002003F05FFA8C20CD
:1039B00003F05CFA002003F059FAAC2003F056FA49
:1039C000002003F053FADC2003F050FA002001E05D
:1039D000F014002003F04AFA702003F047FA0020A8
:1039E00003F044FA902003F041FA002003F03EFA7D
:1039F000EB2003F03BFA002003F038FADC2003F060
:103A000035FA002003F032FAB82003F03BFA002028
:103A100003F02CFA002003F029FA002003F026FA24
:103A2000002003F023FA002003F020FA002003F026
:103A30001DFA002003F01AFA002003F017FABA204A
:103A400003F020FA242003F011FA002003F00EFA0C
:103A5000002003F00BFA002003F008FAC12003F065
:103A600011FA202003F002FA002003F0FFF954209D
:103A700003F0FCF9002003F0F9F9FF2003F0F6F958
:103A8000002003F0F3F9C22003F0FCF90A2003F050
:103A9000EDF9002003F0EAF9042003F0E7F9002033
:103AA00003F0E4F9C32003F0EDF93C2003F0DEF964
:103AB000002003F0DBF93A2003F0D8F9002003F0EE
:103AC000D5F9392003F0D2F9002003F0CFF93720DF
:103AD00003F0CCF9002003F0C9F93C2003F0C6F94B
:103AE000002003F0C3F9362003F0C0F9002003F0F2
:103AF000BDF9322003F0BAF9002003F0B7F92F2006
:103B000003F0B4F9002003F0B1F92C2003F0AEF972
:103B1000002003F0ABF9292003F0A8F9002003F0FE
:103B2000A5F9262003F0A2F9002003F09FF9242034
:103B300003F09CF9002003F099F9242003F096F992
:103B4000002003F093F9232003F090F9002003F004
:103B50008DF93C2003F08AF9002003F087F9362024
:103B600003F084F9002003F081F9322003F07EF99C
:103B7000002003F07BF92F2003F078F9002003F0F8
:103B800075F92C2003F072F9002003F06FF9292059
:103B900003F06CF9002003F069F9262003F066F9C0
:103BA000002003F063F9242003F060F9002003F003
:103BB0005DF9242003F05AF9002003F057F923207F
:103BC00003F054F9002003F051F9C42003F05AF92E
:103BD000622003F04BF9002003F048F9052003F0C0
:103BE00045F9002003F042F9842003F03FF900205A
:103BF00003F03CF9F02003F039F9002003F036F926
:103C0000182003F033F9002003F030F9A42003F06A
:103C10002DF9002003F02AF9182003F027F90020DD
:103C200003F024F9502003F021F9002003F01EF9DD
:103C30000C2003F01BF9002003F018F9172003F003
:103C400015F9002003F012F9952003F00FF9002078
:103C500003F00CF9F32003F009F9002003F006F952
:103C6000E62003F003F9002003F000F9C52003F07B
:103C700009F9322003F0FAF8002003F0F7F84420A5
:103C800003F0F4F8002003F0F1F8652003F0EEF8FB
:103C9000002003F0EBF8762003F0E8F8002003F0B2
:103CA000E5F8882003F0E2F8002003F0DFF8C620F2
:103CB00003F0E8F8202003F0D9F8002003F0D6F84C
:103CC000172003F0D3F8002003F0D0F8012003F010
:103CD000CDF8002003F0CAF8C72003F0D3F8002085
:103CE00003F0C4F8002003F0C1F8002003F0BEF890
:103CF000002003F0BBF8C82003F0C4F8002003F054
:103D0000B5F8002003F0B2F8002003F0AFF800206F
:103D100003F0ACF8C92003F0B5F8002003F0A6F8D2
:103D2000002003F0A3F8002003F0A0F8002003F027
:103D30009DF8002003F09AF8002003F097F8002087
:103D400003F094F8002003F091F8002003F08EF8BF
:103D5000002003F08BF8002003F088F8002003F027
:103D600085F8002003F082F8002003F07FF800209F
:103D700003F07CF8002003F079F8E02003F082F8EB
:103D8000162003F073F8002003F070F81C2003F0F5
:103D90006DF8002003F06AF8212003F067F8002096
:103DA00003F064F8362003F061F8002003F05EF8B9
:103DB000462003F05BF8002003F058F8522003F08F
:103DC00055F8002003F052F8642003F04FF800206B
:103DD00003F04CF87A2003F049F8002003F046F88D
:103DE0008B2003F043F8002003F040F8992003F003
:103DF0003DF8002003F03AF8A82003F037F800203F
:103E000003F034F8B92003F031F8002003F02EF865
:103E1000C42003F02BF8002003F028F8CA2003F098
:103E200025F8002003F022F8D22003F01FF800202C
:103E300003F01CF8D92003F019F8002003F016F85D
:103E4000E02003F013F8002003F010F8F32003F053
:103E50000DF8002003F00AF8E12003F013F8162013
:103E600003F004F8002003F001F81C2002F0FEFF2C
:103E7000002002F0FBFF222002F0F8FF002002F0F9
:103E8000F5FF362002F0F2FF002002F0EFFF4520A0
:103E900002F0ECFF002002F0E9FF522002F0E6FF02
:103EA000002002F0E3FF642002F0E0FF002002F0B7
:103EB000DDFF7A2002F0DAFF002002F0D7FF8B202E
:103EC00002F0D4FF002002F0D1FF992002F0CEFFD3
:103ED000002002F0CBFFA82002F0C8FF002002F073
:103EE000C5FFB92002F0C2FF002002F0BFFFC420CE
:103EF00002F0BCFF002002F0B9FFCA2002F0B6FFBA
:103F0000002002F0B3FFD22002F0B0FF002002F048
:103F1000ADFFD82002F0AAFF002002F0A7FFE020AA
:103F200002F0A4FF002002F0A1FFF32002F09EFFA8
:103F3000002002F09BFFE22002F0A4FF052002F027
:103F400095FF002002F092FF0B2002F08FFF00206F
:103F500002F08CFF1B2002F089FF002002F086FF98
:103F6000342002F083FF002002F080FF442002F0A2
:103F70007DFF002002F07AFF4F2002F077FF002043
:103F800002F074FF612002F071FF002002F06EFF6A
:103F9000792002F06BFF002002F068FF882002F019
:103FA00065FF002002F062FF972002F05FFF002013
:103FB00002F05CFFA62002F059FF002002F056FF3D
:103FC000B72002F053FF002002F050FFC22002F0A1
:103FD0004DFF002002F04AFFC72002F047FF0020FB
:103FE00002F044FFD12002F041FF002002F03EFF2A
:103FF000D62002F03BFF002002F038FFDD2002F067
:1040000035FF002002F032FFF32002F02FFF0020E6
:1040100002F02CFFE32002F035FF052002F026FF1E
:10402000002002F023FF0A2002F020FF002002F00F
:104030001DFF1C2002F01AFF002002F017FF3320A2
:1040400002F014FF002002F011FF442002F00EFFE6
:10405000002002F00BFF502002F008FF002002F0C9
:1040600005FF622002F002FF002002F0FFFE782030
:1040700002F0FCFE002002F0F9FE882002F0F6FEBD
:10408000002002F0F3FE972002F0F0FE002002F084
:10409000EDFEA62002F0EAFE002002F0E7FEB720C7
:1040A00002F0E4FE002002F0E1FEC22002F0DEFE9B
:1040B000002002F0DBFEC72002F0D8FE002002F054
:1040C000D5FED12002F0D2FE002002F0CFFED52096
:1040D00002F0CCFE002002F0C9FEDD2002F0C6FE98
:1040E000002002F0C3FEF32002F0C0FE002002F028
:1040F000BDFEE42002F0C6FE012002F0B7FE002063
:1041000002F0B4FE012002F0B1FE002002F0AEFE8B
:10411000022002F0ABFE002002F0A8FE2A2002F0EE
:10412000A5FE002002F0A2FE3C2002F09FFE00202F
:1041300002F09CFE4B2002F099FE002002F096FE59
:104140005D2002F093FE002002F090FE742002F049
:104150008DFE002002F08AFE842002F087FE0020FF
:1041600002F084FE932002F081FE002002F07EFE29
:10417000A22002F07BFE002002F078FEB32002F0C5
:1041800075FE002002F072FEBE2002F06FFE0020DD
:1041900002F06CFEC42002F069FE002002F066FE10
:1041A000CD2002F063FE002002F060FED32002F07A
:1041B0005DFE002002F05AFEDD2002F057FE0020D6
:1041C00002F054FEF32002F051FE002002F04EFEF9
:1041D000E52002F057FE002002F048FE002002F029
:1041E00045FE002002F042FE002002F03FFE0220C9
:1041F00002F03CFE002002F039FE292002F036FEDB
:10420000002002F033FE3C2002F030FE002002F0DD
:104210002DFE4B2002F02AFE002002F027FE5D203A
:1042200002F024FE002002F021FE742002F01EFEA7
:10423000002002F01BFE842002F018FE002002F095
:1042400015FE932002F012FE002002F00FFEA220C5
:1042500002F00CFE002002F009FEB32002F006FE80
:10426000002002F003FEBE2002F000FE002002F05B
:10427000FDFDC42002F0FAFD002002F0F7FDCD2084
:1042800002F0F4FD002002F0F1FDD32002F0EEFD7B
:10429000002002F0EBFDDC2002F0E8FD002002F03F
:1042A000E5FDF32002F0E2FD002002F0DFFDE62054
:1042B00002F0E8FD112002F0D9FD002002F0D6FD49
:1042C000342002F0D3FD002002F0D0FD562002F091
:1042D000CDFD002002F0CAFD762002F0C7FD0020CF
:1042E00002F0C4FD772002F0C1FD002002F0BEFD07
:1042F000662002F0BBFD002002F0B8FD882002F02D
:10430000B5FD002002F0B2FD992002F0AFFD0020C3
:1043100002F0ACFDBB2002F0A9FD002002F0A6FDDA
:10432000992002F0A3FD002002F0A0FD662002F01B
:104330009DFD002002F09AFD552002F097FD00201F
:1043400002F094FD552002F091FD002002F08EFD58
:10435000452002F08BFD002002F088FD432002F092
:1043600085FD002002F082FD442002F07FFD002048
:1043700002F07CFDE72002F085FD322002F076FDA0
:10438000002002F073FD552002F070FD002002F0C5
:104390006DFD762002F06AFD002002F067FD6620C8
:1043A00002F064FD002002F061FD672002F05EFD76
:1043B000002002F05BFD672002F058FD002002F0B3
:1043C00055FD872002F052FD002002F04FFD99209C
:1043D00002F04CFD002002F049FDBB2002F046FD3A
:1043E000002002F043FD992002F040FD002002F081
:1043F0003DFD772002F03AFD002002F037FD442019
:1044000002F034FD002002F031FD562002F02EFDB6
:10441000002002F02BFD232002F028FD002002F0F6
:1044200025FD332002F022FD002002F01FFD452073
:1044300002F01CFD002002F019FDE82002F022FD30
:10444000002002F013FD002002F010FD992002F080
:104450000DFD002002F00AFD872002F007FD00207C
:1044600002F004FD882002F001FD002002F0FEFCB5
:10447000772002F0FBFC002002F0F8FC662002F03E
:10448000F5FC002002F0F2FC882002F0EFFC002096
:1044900002F0ECFCAA2002F0E9FC002002F0E6FCAD
:1044A000BB2002F0E3FC002002F0E0FC992002F0C7
:1044B000DDFC002002F0DAFC662002F0D7FC0020D0
:1044C00002F0D4FC552002F0D1FC002002F0CEFC1A
:1044D000552002F0CBFC002002F0C8FC442002F082
:1044E000C5FC002002F0C2FC442002F0BFFC00200A
:1044F00002F0BCFC552002F0B9FC002002F0B6FC32
:10450000E92002F0BFFCAA2002F0B0FC002002F07B
:10451000ADFC002002F0AAFC002002F0A7FC002065
:1045200002F0B0FCAA2002F0A1FCCF2002F0AAFC0D
:10453000002002F09BFC002002F098FC002002F01A
:1045400095FC002002F092FC002002F08FFC00207D
:1045500002F08CFC002002F089FC002002F086FCB6
:10456000002002F083FC002002F080FC002002F01A
:104570007DFC002002F07AFC002002F077FC002095
:1045800002F074FC002002F071FC002002F06EFCCE
:10459000002002F06BFCF02002F074FC002002F01E
:1045A00065FC502002F062FC002002F05FFC00205D
:1045B00002F05CFC002002F059FCF32002F062FCE7
:1045C000002002F053FCF92002F05CFC062002F00F
:1045D0004DFC102002F04AFC292002F047FC00208C
:1045E00002F044FC3A2002F04DFC552002F03EFC63
:1045F000112002F047FC642007F0DAF9292002F0CC
:1046000041FC352002F03EFC002002F02FFC51203E
:1046100002F038FCFF2002F029FC532002F032FCAB
:104620002C2002F023FC552002F02CFC822002F00A
:104630001DFC2C2002F026FC02F0DFB8FE4880882A
:1046400045F2105188427DD155214FF4704002F05F
:104650002FFCAA214FF2010002F02AFC52214FF256
:10466000020002F025FC08214FF2030002F020FCBA
:1046700001214FF2040002F01BFC0D214FF43040E9
:1046800002F016FC0D214BF2010002F011FC0D218D
:104690004BF2020002F00CFC34214FF4364002F0E1
:1046A00007FC34214BF2016002F002FC34214BF292
:1046B000026002F0FDFB0D214FF4314002F0F8FBE7
:1046C0000D214BF2011002F0F3FB0D214BF2021011
:1046D00002F0EEFB34214FF4374002F0E9FB3421C5
:1046E0004BF2017002F0E4FB34214BF2027002F055
:1046F000DFFB00214FF4324002F0DAFB00214BF2E5
:10470000012002F0D5FB00214BF2022002F0D0FB89
:1047100024214FF4384002F0CBFB24214BF601005A
:1047200002F0C6FB24214BF6020002F0C1FB01217E
:104730004FF43F4002F0BCFB0F214FF4334002F036
:10474000B7FB00E0FDE30F214BF2013002F0B0FBBC
:104750000F214BF2023002F0ABFB34214FF4394011
:1047600002F0A6FB34214BF6011002F0A1FB34212C
:104770004BF6021002F09CFB08214FF4354002F08A
:1047800097FB08214BF2015002F092FB08214BF2FB
:10479000025002F08DFB03214FF4424002F088FBEF
:1047A00024214FF43A4002F083FB24214BF60120F0
:1047B00002F07EFB24214BF6022002F079FB00215F
:1047C0004FF43C4002F074FB78214BF6014002F0BC
:1047D0006FFB00214BF6024002F06AFB00214FF410
:1047E0003D4002F065FB78214BF6015002F060FB82
:1047F00000214BF6025002F05BFB00214FF43E40DB
:1048000002F056FB64214BF6016002F051FB0021DF
:104810004FF4514002F04CFB33214DF2011002F0F5
:1048200047FB00214DF2021002F042FB34214DF211
:10483000031002F03DFB00214DF2041002F038FBA2
:104840003A214DF2051002F033FB00214DF2061023
:1048500002F02EFB4A214DF2071002F029FB002145
:104860004DF2081002F024FB5C214DF2091002F019
:104870001FFB00214DF20A1002F01AFB81214DF2BC
:104880000B1002F015FB00214DF20C1002F010FB92
:10489000A6214DF20D1002F00BFB00214DF20E107F
:1048A00002F006FBE5214DF20F1002F001FB0121A1
:1048B0004DF2101002F0FCFA13214DF2111002F02B
:1048C000F7FA01214DF2121002F0F2FA54214DF2E2
:1048D000131002F0EDFA01214DF2141002F0E8FA83
:1048E00082214DF2151002F0E3FA01214DF216106B
:1048F00002F0DEFACA214DF2171002F0D9FA0221B5
:104900004DF2181002F0D4FA00214DF2191002F005
:10491000CFFA02214DF21A1002F0CAFA01214DF22B
:104920001B1002F0C5FA02214DF21C1002F0C0FA71
:1049300034214DF21D1002F0BBFA02214DF21E107F
:1049400002F0B6FA67214DF21F1002F0B1FA02210F
:104950004DF2201002F0ACFA84214DF2211002F049
:10496000A7FA02214DF2221002F0A2FAA4214DF280
:10497000231002F09DFA02214DF2241002F098FA61
:10498000B7214DF2251002F093FA02214DF22610C4
:1049900002F08EFACF214DF2271002F089FA02219F
:1049A0004DF2281002F084FADE214DF2291002F0B7
:1049B0007FFA02214DF22A1002F07AFAF2214DF22A
:1049C0002B1002F075FA02214DF22C1002F070FA51
:1049D000FE214DF22D1002F06BFA03214DF22E1044
:1049E00002F066FA10214DF22F1002F061FA032155
:1049F0004DF2301002F05CFA33214DF2311002F02A
:104A000057FA03214DF2321002F052FA6D214DF2A5
:104A1000331002F04DFA00214FF4524002F048FAF0
:104A200033214DF2012002F043FA00214DF2022021
:104A300002F03EFA342101E0F01400204DF2032090
:104A400002F036FA00214DF2042002F031FA3A2148
:104A50004DF2052002F02CFA00214DF2062002F062
:104A600027FA4A214DF2072002F022FA00214DF2E6
:104A7000082002F01DFA5C214DF2092002F018FA1C
:104A800000214DF20A2002F013FA81214DF20B2091
:104A900002F00EFA00214DF20C2002F009FAA621D4
:104AA0004DF20D2002F004FA00214DF20E2002F02A
:104AB000FFF9E5214DF20F2002F0FAF901214DF244
:104AC000102002F0F5F913214DF2112002F0F0F957
:104AD00001214DF2122002F0EBF954214DF2132086
:104AE00002F0E6F901214DF2142002F0E1F98221F1
:104AF0004DF2152002F0DCF901214DF2162002F0F2
:104B0000D7F9CA214DF2172002F0D2F902214DF255
:104B1000182002F0CDF900214DF2192002F0C8F959
:104B200002214DF21A2002F0C3F901214DF21B209F
:104B300002F0BEF902214DF21C2002F0B9F9342135
:104B40004DF21D2002F0B4F902214DF21E2002F0B8
:104B5000AFF967214DF21F2002F0AAF902214DF2B0
:104B6000202002F0A5F984214DF2212002F0A0F9C5
:104B700002214DF2222002F09BF9A4214DF22320C4
:104B800002F096F902214DF2242002F091F9B721AA
:104B90004DF2252002F08CF902214DF2262002F080
:104BA00087F9CF214DF2272002F082F902214DF240
:104BB000282002F07DF9DE214DF2292002F078F95B
:104BC00002214DF22A2002F073F9F2214DF22B203E
:104BD00002F06EF902214DF22C2002F069F9FE215B
:104BE0004DF22D2002F064F903214DF22E2002F047
:104BF0005FF910214DF22F2002F05AF903214DF2F6
:104C0000302002F055F933214DF2312002F050F9F5
:104C100003214DF2322002F04BF96D214DF2332089
:104C200002F046F900214FF4534002F041F93321DC
:104C30004DF2013002F03CF900214DF2023002F059
:104C400037F934214DF2033002F032F900214DF2F0
:104C5000043002F02DF93A214DF2053002F028F926
:104C600000214DF2063002F023F94A214DF20730BF
:104C700002F01EF900214DF2083002F019F95C2112
:104C80004DF2093002F014F900214DF20A3002F021
:104C90000FF981214DF20B3002F00AF900214DF29B
:104CA0000C3002F005F9A6214DF20D3002F000F9AA
:104CB00000214DF20E3002F0FBF8E5214DF20F30ED
:104CC00002F0F6F801214DF2103002F0F1F8132154
:104CD0004DF2113002F0ECF801214DF2123002F0E9
:104CE000E7F854214DF2133002F0E2F801214DF2C1
:104CF000143002F0DDF882214DF2153002F0D8F8C0
:104D000001214DF2163002F0D3F8CA214DF21730CE
:104D100002F0CEF802214DF2183002F0C9F800215D
:104D20004DF2193002F0C4F802214DF21A3002F0AF
:104D3000BFF801214DF21B3002F0BAF802214DF20A
:104D40001C3002F0B5F834214DF21D3002F0B0F8FD
:104D500002214DF21E3002F0ABF867214DF21F30F8
:104D600002F0A6F802214DF2203002F0A1F88421D1
:104D70004DF2213002F09CF802214DF2223002F077
:104D800097F8A4214DF2233002F092F802214DF25F
:104D9000243002F08DF8B7214DF2253002F088F86A
:104DA00002214DF2263002F083F8CF214DF2273058
:104DB00002F07EF802214DF2283002F079F8DE216F
:104DC0004DF2293002F074F802214DF22A3002F03F
:104DD0006FF8F2214DF22B3002F06AF802214DF209
:104DE0002C3002F065F8FE214DF22D3002F060F813
:104DF00003214DF22E3002F05BF810214DF22F30DE
:104E000002F056F803214DF2303002F051F8332110
:104E10004DF2313002F04CF803214DF2323002F005
:104E200047F86D214DF2333002F042F800214FF483
:104E3000544002F03DF833214DF2014002F038F8C1
:104E400000214DF2024002F033F834214DF20340CC
:104E500002F02EF800214DF2044002F029F83A2128
:104E60004DF2054002F024F800214DF2064002F018
:104E70001FF84A214DF2074002F01AF800214DF2C6
:104E8000084002F015F85C214DF2094002F010F8DC
:104E900000214DF20A4002F00BF881214DF20B4047
:104EA00002F006F800214DF20C4002F001F8A621B4
:104EB0004DF20D4001F0FCFF00214DF20E4001F0DB
:104EC000F7FFE5214DF20F4001F0F2FF01214DF215
:104ED000104001F0EDFF13214DF2114001F0E8FF09
:104EE00001214DF2124001F0E3FF54214DF2134035
:104EF00001F0DEFF01214DF2144001F0D9FF8221C3
:104F00004DF2154001F0D4FF01214DF2164001F0A1
:104F1000CFFFCA214DF2174001F0CAFF02214DF226
:104F2000184001F0C5FF00214DF2194001F0C0FF0B
:104F300002214DF21A4001F0BBFF01214DF21B404E
:104F400000E006E301F0B4FF02214DF21C4001F045
:104F5000AFFF34214DF21D4001F0AAFF02214DF2B6
:104F60001E4001F0A5FF67214DF21F4001F0A0FF98
:104F700002214DF2204001F09BFF84214DF221409F
:104F800001F096FF02214DF2224001F091FFA42191
:104F90004DF2234001F08CFF02214DF2244001F03C
:104FA00087FFB7214DF2254001F082FF02214DF22B
:104FB000264001F07DFFCF214DF2274001F078FF20
:104FC00002214DF2284001F073FFDE214DF229400D
:104FD00001F06EFF02214DF22A4001F069FFF2213B
:104FE0004DF22B4001F064FF02214DF22C4001F004
:104FF0005FFFFE214DF22D4001F05AFF03214DF2DB
:105000002E4001F055FF10214DF22F4001F050FFCE
:1050100003214DF2304001F04BFF33214DF231407E
:1050200001F046FF03214DF2324001F041FF6D21B6
:105030004DF2334001F03CFF00214FF4554001F0A8
:1050400037FF33214DF2015001F032FF00214DF2C4
:10505000025001F02DFF34214DF2035001F028FFE2
:1050600000214DF2045001F023FF3A214DF205508A
:1050700001F01EFF00214DF2065001F019FF4A21F8
:105080004DF2075001F014FF00214DF2085001F0DD
:105090000FFF5C214DF2095001F00AFF00214DF293
:1050A0000A5001F005FF81214DF20B5001F000FF85
:1050B00000214DF20C5001F0FBFEA6214DF20D50E7
:1050C00001F0F6FE00214DF20E5001F0F1FEE52157
:1050D0004DF20F5001F0ECFE01214DF2105001F0A5
:1050E000E7FE13214DF2115001F0E2FE01214DF2D5
:1050F000125001F0DDFE54214DF2135001F0D8FEA4
:1051000001214DF2145001F0D3FE82214DF21550D1
:1051100001F0CEFE01214DF2165001F0C9FECA2168
:105120004DF2175001F0C4FE02214DF2185001F06B
:10513000BFFE00214DF2195001F0BAFE02214DF2DE
:105140001A5001F0B5FE01214DF21B5001F0B0FEE6
:1051500002214DF21C5001F0ABFE34214DF21D50E6
:1051600001F0A6FE02214DF21E5001F0A1FE6721C2
:105170004DF21F5001F09CFE02214DF2205001F033
:1051800097FE84214DF2215001F092FE02214DF252
:10519000225001F08DFEA4214DF2235001F088FE33
:1051A00002214DF2245001F083FEB7214DF225502B
:1051B00001F07EFE02214DF2265001F079FECF2152
:1051C0004DF2275001F074FE02214DF2285001F0FB
:1051D0006FFEDE214DF2295001F06AFE02214DF2F0
:1051E0002A5001F065FEF2214DF22B5001F060FED5
:1051F00002214DF22C5001F05BFEFE214DF22D50AC
:1052000001F056FE03214DF22E5001F051FE102107
:105210004DF22F5001F04CFE03214DF2305001F0C1
:1052200047FE33214DF2315001F042FE03214DF291
:10523000325001F03DFE6D214DF2335001F038FE49
:1052400000214FF4564001F033FE33214DF201604E
:1052500001F02EFE00214DF2026001F029FE342102
:105260004DF2036001F024FE00214DF2046001F0D4
:105270001FFE3A214DF2056001F01AFE00214DF2A9
:10528000066001F015FE4A214DF2076001F010FEA4
:1052900000214DF2086001F00BFE5C214DF2096027
:1052A00001F006FE00214DF20A6001F001FE8121AD
:1052B0004DF20B6001F0FCFD00214DF20C6001F09D
:1052C000F7FDA6214DF20D6001F0F2FD00214DF237
:1052D0000E6001F0EDFDE5214DF20F6001F0E8FDFB
:1052E00001214DF2106001F0E3FD13214DF2116038
:1052F00001F0DEFD01214DF2126001F0D9FD5421D3
:105300004DF2136001F0D4FD01214DF2146001F063
:10531000CFFD82214DF2156001F0CAFD01214DF251
:10532000166001F0C5FDCA214DF2176001F0C0FD05
:1053300002214DF2186001F0BBFD00214DF2196011
:1053400001F0B6FD02214DF21A6001F0B1FD01211C
:105350004DF21B6001F0ACFD02214DF21C6001F02A
:10536000A7FD34214DF21D6001F0A2FD02214DF296
:105370001E6001F09DFD67214DF21F6001F098FD58
:1053800002214DF2206001F093FD84214DF2216055
:1053900001F08EFD02214DF2226001F089FDA42171
:1053A0004DF2236001F084FD02214DF2246001F0F2
:1053B0007FFDB7214DF2256001F07AFD02214DF20B
:1053C000266001F075FDCF214DF2276001F070FDE0
:1053D00002214DF2286001F06BFDDE214DF22960C3
:1053E00001F066FD02214DF22A6001F061FDF2211B
:1053F0004DF22B6001F05CFD02214DF22C6001F0BA
:1054000057FDFE214DF22D6001F052FD03214DF2BA
:105410002E6001F04DFD10214DF22F6001F048FD8E
:1054200003214DF2306001F043FD33214DF2316034
:1054300001F03EFD03214DF2326001F039FD6D2196
:105440004DF2336001F034FD55214FF4704001F00E
:105450002FFDAA214FF2010001F02AFD52214FF247
:10546000020001F025FD08214FF2030001F020FDAC
:1054700000214FF2040001F01BFDCC214FF431401C
:1054800001F016FD00214BF2011001F011FD052184
:105490004FF4364001F00CFD70214FF4374001F01D
:1054A00007FD70214BF2017001F002FD01214FF464
:1054B000384001F0FDFC03214BF6010001F0F8FC3F
:1054C00003214BF6020001F0F3FC03214BF603002D
:1054D00001F0EEFC02214FF43C4001F0E9FC002118
:1054E0004BF6014001F0E4FC00214BF6024001F0D4
:1054F000DFFCD0214FF4494001F0DAFC02214CF6E8
:10550000011001F0D5FC50214CF6021001F0D0FC46
:1055100050214CF6031001F0CBFC50214CF6041046
:1055200001F0C6FC00214FF4545001F0C1FC55219C
:105530004FF4685001F0BCFC4FF4885001F0A2FC1D
:10554000782006F06BFA4FF4245001F09BFC01F038
:1055500054B9FE48808849F2253188427ED147F609
:10556000F001E52001F0A4FC4FF48071012001F06E
:105570009FFC4FF4E061022001F09AFC41F23001FF
:10558000032001F095FC0021042001F091FC40F281
:105590000221082001F08CFC0021092001F088FC88
:1055A00000210A2001F084FC00210C2001F080FC85
:1055B00000210D2001F07CFC00210F2001F078FC7F
:1055C0000021102001F074FC0721112001F070FC73
:1055D0000021122001F06CFC0021132001F068FC76
:1055E0000021072001F064FC41F29061102001F0DD
:1055F0005FFC40F22721112001F05AFC9D2112206E
:1056000001F056FC4FF4C851132001F051FC252144
:10561000292001F04DFC0D212B2001F049FC072130
:10562000302001F045FC40F20331312001F040FC14
:105630000321322001F03CFC40F20621352001F02C
:1056400037FC0821362001F033FC40F206413720B8
:1056500001F02EFC4FF44171382000E057E001F0DA
:1056600027FC0721392001F023FC40F202613C2095
:1056700001F01EFC08213D2001F01AFC0021502001
:1056800001F016FCEF21512001F012FC0021522004
:1056900001F00EFC40F23F11532001F009FC4FF4E1
:1056A0002741602001F004FC0121612001F000FC91
:1056B00000216A2001F0FCFB0021802001F0F8FBB2
:1056C0000021812001F0F4FB0021822001F0F0FB99
:1056D0000021832001F0ECFB0021842001F0E8FB95
:1056E0000021852001F0E4FB1021902001F0E0FB77
:1056F0004FF4C061922001F0DBFB40F23311072030
:1057000001F0D6FB2221002001F0D2FB1FE78F48D9
:10571000808849F2283188427ED141F28F01EC2005
:1057200001F0C6FB41F23421EF2001F0C1FB4FF440
:105730008071012001F0BCFB4FF4E061022001F018
:10574000B7FB41F23001032001F0B2FB002104203D
:1057500001F0AEFB40F20221082001F0A9FB00217C
:10576000092001F0A5FB00210A2001F0A1FB012185
:105770000C2001F09DFB00210D2001F099FB002180
:105780000F2001F095FB0021102001F091FB072173
:10579000112001F08DFB0021122001F089FB002176
:1057A000132001F085FB0121072001F081FB32204D
:1057B00006F0FEF841F29041102001F079FB40F232
:1057C0002721112001F074FB322006F0F1F88A2124
:1057D000122001F06DFB322006F0EAF84FF4D051B0
:1057E000132001F065FB0621292001F061FB0D214A
:1057F0002B2001F05DFB322006F0DAF8002120209A
:1058000001F056FB0021212001F052FB322006F06E
:10581000CFF80021302000E074E001F049FB40F2B5
:105820000461312001F044FB40F20531322001F0E7
:105830003FFB0021352001F03BFB40F609413620BB
:1058400001F036FB4FF40171372001F031FB40F2DB
:105850000131382001F02CFB40F20771392001F0B2
:1058600027FB00213C2001F023FB40F60A213D20CC
:1058700001F01EFB322006F09BF80021502001F0C1
:1058800017FBEF21512001F013FB0021522001F002
:105890000FFB40F23F11532001F00AFB4FF4274168
:1058A000602001F005FB0121612001F001FB0021D6
:1058B0006A2001F0FDFA0021802001F0F9FA0021B0
:1058C000812001F0F5FA0021822001F0F1FA002197
:1058D000832001F0EDFA0021842001F0E9FA002193
:1058E000852001F0E5FA1021902001F0E1FA4FF453
:1058F000C061922001F0DCFA40F23311072001F080
:10590000D7FA24E61148808849F2203188427DD1B7
:105910000021084601F0CCFA4FF48071012001F01B
:10592000C7FA4FF4E061022001F0C2FA41F23001FF
:10593000032001F0BDFA0021042001F0B9FA40F281
:105940000221082001F0B4FA002101E0F014002047
:10595000092001F0ADFA00210A2001F0A9FA012185
:105960000C2001F0A5FA00210D2001F0A1FA002180
:105970000F2001F09DFA322006F01AF840F20111D2
:10598000072001F095FA322006F012F84FF4865104
:10599000102001F08DFA0721112001F089FA4FF44F
:1059A0008871122001F084FA4FF43061132001F065
:1059B0007FFA0021292001F07BFA44F210012B200C
:1059C00001F076FA0021502001F072FAEF21512007
:1059D00001F06EFA0021522001F06AFA40F23F1104
:1059E000532001F065FA4FF41C51602001F060FA79
:1059F0000121612001F05CFA00216A2001F058FACF
:105A00000021802001F054FA002100E031E08120E3
:105A100001F04EFA0021822001F04AFA0021832091
:105A200001F046FA0021842001F042FA002185208D
:105A300001F03EFA1021902001F03AFA0021922064
:105A400001F036FA0121932001F032FA4FF4887107
:105A5000952001F02DFA0021972001F029FA00216C
:105A6000982001F025FA40F27311072001F020FA86
:105A70006DE5FE48808849F2313188427DD141F29E
:105A80001401E72001F014FA4FF48071012001F0B5
:105A90000FFA4FF40071022001F00AFA41F23801C6
:105AA000032001F005FA40F20221082001F000FA7B
:105AB0000021092001F0FCF900210A2001F0F8F989
:105AC00000210C2001F0F4F900210D2001F0F0F983
:105AD00000210F2001F0ECF90021102001F0E8F97D
